S010000065766F675F6F6E652E73726563C2
S11300000C941C010C9442010C9442010C94420186
S11300100C9442010C9442010C9442010C94420150
S11300200C9442010C9442010C9442010C94420140
S11300300C9442010C9442010C9421050C9442014D
S11300400C9442010C9442010C9442010C94420120
S11300500C9442010C9442010C9442010C94420110
S11300600C9442010C9442010C9442010C94420100
S11300700C9496050C94BE050C94AA050C944201AC
S11300800C9442010C9442010C9442010C944201E0
S11300900C9442010C9442010C9442010C944201D0
S11300A00C9442010C9442010C9442010C944201C0
S11300B00C9442010C9442010C9442010C944201B0
S11300C00C9442010C9442010C9442010C944201A0
S11300D00C9442010C9442010C9442010C94420190
S11300E00C9442010C9442010C9416060C943E06A6
S11300F00C942A060C9442010C9442010C94420183
S11301000C9442010C9442010C9442010C9442015F
S11301100C9442010C9442010C9442010C9442014F
S11301200C9442010C9442010C9442010C9442013F
S11301300C9442010C9442010C9442010C9442012F
S11301400C9442010C9442010C9442010C9442011F
S11301500C9442010C9442010C9442010C9442010F
S11301600C9442010C9442010C9442010C944201FF
S11301700C9442010C9442010C9442010C944201EF
S11301800C9442010C9442010C9442010C944201DF
S11301900C9442010C9442010C9442010C944201CF
S11301A00C9442010C9442010C9442010C944201BF
S11301B00C9442010C9442010C9442010C944201AF
S11301C00C9442010C9442010C9442010C9442019F
S11301D00C9442010C9442010C9442010C9442018F
S11301E00C9442010C9442010C9442010C9442017F
S11301F00C9442010C9442010C9442014E414E492C
S11302004E495459494E46CDCCCC3D0AD7233C17D0
S1130210B7D13877CC2B329595E6241FB14F0A001D
S11302200020410000C84200401C4620BCBE4CCA0D
S11302301B0E5AAEC59D740011241FBECFEFCDBF57
S1130240DFE3DEBF00E00CBF18BE19BE1ABE1BBE42
S113025015E2A0E0B0E2E0EDFAE100E00BBF02C07D
S113026007900D92A23AB107D9F71BBE25E2A2EA84
S1130270B5E201C01D92A33BB207E1F70E94C40698
S11302800C94660D0C940000CF93DF93FC01DC0109
S1130290A956BF4F1D921D921D921C921397EC01FB
S11302A0C556DF4F80E090E0A8ECB2E488839983E0
S11302B0AA83BB832496188219821A821B822496ED
S11302C088839983AA83BB8381E08083638B748B47
S11302D0458B568BDF91CF910895633A09F447C05B
S11302E028F4603A69F0613A31F175C0683A09F46A
S11302F058C0693A09F462C0643A09F06CC044C059
S1130300DC0180EB57968C9357978C911F928F93B7
S11303108AE395E29F938F931F928FE38F93CD018E
S113032048969F938F930E94B4098DB79EB7089601
S11303308DBF9EBF089521EBFC01278B20812111E5
S113034006C020E33DE0208F318F128E08952130C6
S113035039F421E33DE0FC01208F318F128E0895A2
S113036022E33DE0FC01208F318F128E089523EBB0
S1130370FC01278BDC0158968AE0EEE3F5E201905C
S11303800D928A95E1F7089524EBFC01278BDC019B
S1130390589688E0E8E4F5E201900D928A95E1F739
S11303A0089528EBFC01278BDC01589685E0E0E5F5
S11303B0F5E201900D928A95E1F7089529EBFC018D
S11303C0278BDC01589685E0E5E5F5E201900D9276
S11303D08A95E1F7089520EEFC01278B2DE0208F0C
S11303E0118E08954F925F926F927F928F929F9297
S11303F0AF92BF92CF92DF92EF92FF920F931F932F
S1130400CF93DF931F921F92CDB7DEB7FC016C012F
S113041087E5C80ED11CC982DA82683CC9F138F478
S1130420613C09F453C0623C09F46FC049C16A3CA1
S113043009F409C108F426C16B3C09F041C1178ACB
S1130440808181111FC08FEF9FEF81839283809100
S1130450A7259091A825A091A925B091AA258383C9
S11304609483A583B6838091A7259091A825A09114
S1130470A925B091AA2587839087A187B28784E0B4
S1130480808323C181E39DE0808F918F128E1DC1F3
S113049088ED878B8081811113C080E39DE0808F7C
S11304A0918F128E8091A7259091A825A091A925BE
S11304B0B091AA2583839483A583B683108205C152
S11304C081E39DE0808F918F128EFFC081ED878B39
S11304D08081811114C080E39DE0808F918F128E02
S11304E08091A7259091A825A091A925B091AA252E
S11304F083839483A583B68382E08083E6C081E30B
S11305009DE0808F918F128EE0C07F0182ED878BFA
S11305108F01095A1F4F8091B0258823E1F3F70119
S1130520858996890E947606F80181938F0110923D
S1130530B0258D3081F7BE016F5F7F4FC6010E94E9
S11305403008F7016387748785879687BE016F5FDC
S11305507F4F89819A810E9430082B013C01F70169
S11305606787708B818B928B49815A814C195D0905
S113057060E070E0C6010E94AD09F70183849484B1
S1130580A584B684E956FF4F20813181428153818D
S1130590C501B4010E94B1078823CCF1F701E556E7
S11305A0FF4F2081318142815381C501B4010E94F2
S11305B02B08181664F1F701E156FF4F20813181B1
S11305C042815381C301B2010E94B1078823FCF028
S11305D0F701ED55FF4F2081318142815381C301E1
S11305E0B2010E942B08181694F0A5019401C301CE
S11305F0B2010E94450720E030E048EC52E40E943A
S11306002B08181624F0F7018081882339F081E340
S11306109DE0F701808F918F128E57C080E39DE09B
S1130620F701808F918F128E8091A7259091A82534
S1130630A091A925B091AA2583839483A583B68329
S113064083E0808342C0178A8081811115C01182A2
S113065012828091A7259091A825A091A925B091F7
S1130660AA2583839483A583B68387839087A187F0
S1130670B28785E0808329C081E39DE0808F918FDC
S1130680128E23C089ED878B8081811113C080E392
S11306909DE0808F918F128E8091A7259091A8253F
S11306A0A091A925B091AA2583839483A583B683B9
S11306B010820BC081E39DE0808F918F128E05C064
S11306C080EE878B8DE0808F118E0F900F90DF91DD
S11306D0CF911F910F91FF90EF90DF90CF90BF903B
S11306E0AF909F908F907F906F905F904F90089500
S11306F0CF93DF93EC01862F90E0959587959595A0
S1130700879595958795959587958A30910521F4D8
S1130710CE010E946D010DC00C9721F4CE010E9400
S1130720F20107C06D3029F080EE8F8B8DE0888F49
S1130730198ECE014796DF91CF910895CF93DF9321
S1130740EC018881833009F452C028F4813051F0DF
S1130750823051F173C1843009F46CC0853009F4DE
S1130760ECC06CC16091A7257091A8258091A92542
S11307709091AA252B813C814D815E810E94440782
S113078020E030E0A9010E942B0818160CF056C195
S1130790188261EF8D899E890E9479066DE08D89AA
S11307A09E890E9479064AC16091A7257091A82567
S11307B08091A9259091AA252B813C814D815E8150
S11307C00E94440720E030E040E251E40E942B08FC
S11307D018160CF033C1188261EF8D899E890E942E
S11307E079066DE08D899E890E94790627C1609102
S11307F0A7257091A8258091A9259091AA252B81E0
S11308003C814D815E810E94440720E030E040E25B
S113081051E40E942B0818160CF010C1188261EFE5
S11308208D899E890E9479066DE08D899E890E943A
S1130830790604C16091A7257091A8258091A92506
S11308409091AA252B813C814D815E810E944407B1
S113085020E030E046E153E40E942B08181644F5EA
S113086089819A814E97C0F463E08D899E890E94A4
S1130870790689819A812AE2289FB001299F700D07
S11308801124625B7F4D8D899E890E9481066DE0F3
S11308908D899E890E947906188261EF8D899E89CF
S11308A00E9479066DE08D899E890E947906C6C0F2
S11308B06091A7257091A8258091A9259091AA25DA
S11308C02F81388549855A850E94440720E030E00D
S11308D040EA50E40E942B0818160CF0AFC089813E
S11308E09A814E97C0F463E08D899E890E947906AF
S11308F089819A812AE2289FB001299F700D1124D1
S1130900625B7F4D8D899E890E9481066DE08D8991
S11309109E890E94790689819A81019689839A83A6
S11309208091A7259091A825A091A925B091AA25E9
S11309308F839887A987BA8781C06091A725709112
S1130940A8258091A9259091AA252B813C814D81D0
S11309505E810E94440720E030E040E451E40E94BC
S11309602B08181644F589819A810697C0F462E031
S11309708D899E890E94790689819A812DE0289F1C
S1130980B001299F700D11246050704E8D899E898D
S11309900E9481066DE08D899E890E9479061882E5
S11309A069EF8D899E890E9479066DE08D899E8903
S11309B00E94790643C06091A7257091A825809173
S11309C0A9259091AA252F81388549855A850E94A9
S11309D0440720E030E040E050E40E942B08181661
S11309E06CF589819A810697C0F462E08D899E89AD
S11309F00E94790689819A812DE0289FB001299F60
S1130A00700D11246050704E8D899E890E9481065C
S1130A106DE08D899E890E94790689819A8101966B
S1130A2089839A838091A7259091A825A091A925CF
S1130A30B091AA258F839887A987BA87DF91CF9130
S1130A4008951F920F920FB60F92112408B60F92B9
S1130A5018BE09B60F9219BE0BB60F921BBE2F9388
S1130A603F934F935F936F937F938F939F93AF9332
S1130A70BF93EF93FF936091A3257091A425809178
S1130A80A5259091A6252091A7253091A8254091D0
S1130A90A9255091AA250E9445076093A725709324
S1130AA0A8258093A9259093AA2581E08093A22567
S1130AB0FF91EF91BF91AF919F918F917F916F9132
S1130AC05F914F913F912F910F900BBE0F9009BEF4
S1130AD00F9008BE0F900FBE0F901F9018950F93A4
S1130AE0CF93DF93CDB7DEB72597CDBFDEBF298384
S1130AF03A834B835C836D83209300088A819B81B6
S1130B00AC81BD818093A3259093A425A093A525B2
S1130B10B093A625E6E0F8E08081082B00832596B3
S1130B20CDBFDEBFDF91CF910F9108951F920F9239
S1130B300FB60F92112408B60F9218BE8F9381E05E
S1130B408093AD258F910F9008BE0F900FBE0F902C
S1130B501F9018951F920F920FB60F92112408B68A
S1130B600F9218BE8F9381E08093AC258F910F90E4
S1130B7008BE0F900FBE0F901F9018951F920F92F2
S1130B800FB60F92112408B60F9218BE8F9381E00E
S1130B908093AB258F910F9008BE0F900FBE0F90DE
S1130BA01F901895EF920F934093B6086295607F5B
S1130BB06093B708772329F0E4EBF8E08081846040
S1130BC08083E4EBF8E0808188618083000F000F6C
S1130BD0E02A80E1289F900111242E292093B30854
S1130BE080E8809341060F91EF9008958091B008BA
S1130BF00895E1EBF8E0808185FFFDCF6093B008B4
S1130C0008950F931F93CF93DF93EB0168816623BD
S1130C1041F08C012196C8010E94F9056991611186
S1130C20FACFDF91CF911F910F9108951F920F92E8
S1130C300FB60F92112408B60F9218BE8F9381E05D
S1130C408093B0258F910F9008BE0F900FBE0F9028
S1130C501F9018951F920F920FB60F92112408B689
S1130C600F9218BE8F9381E08093AF258F910F90E0
S1130C7008BE0F900FBE0F901F9018951F920F92F1
S1130C800FB60F92112408B60F9218BE8F9381E00D
S1130C908093AE258F910F9008BE0F900FBE0F90DA
S1130CA01F901895EF920F934093A60A6295607F68
S1130CB06093A70A772329F0E4EAFAE0808184604C
S1130CC08083E4EAFAE0808188618083000F000F6A
S1130CD0E02A80E1289F900111242E292093A30A61
S1130CE088E0809381060F91EF9008958091A00A87
S1130CF00895E1EAFAE0808185FFFDCF6093A00AC0
S1130D0008950F931F93CF93DF93EB0168816623BC
S1130D1041F08C012196C8010E9479066991611104
S1130D20FACFDF91CF911F910F910895E0E5F0E0A4
S1130D30908141E050E0082E02C0440F551F0A94F0
S1130D40E2F7942B9083E1E5F0E0208130E0242366
S1130D503523232BD1F398ED94BF8093400008955D
S1130D60E2EAF0E04081815021E030E0B90102C0C4
S1130D70660F771F8A95E2F7CB01842B8083089551
S1130D808FB780688FBF0895CF93DF93CDB7DEB759
S1130D90CA5AD109CDBFDEBF81E00E94960603E0A6
S1130DA020915A2530915B2540915C2550915D2519
S1130DB060915E25CE0101960E946F0580919D256C
S1130DC090919E25A0919F25B091A025E12C00E053
S1130DD022E04C015D01AC01BD01CE0102960E94EE
S1130DE0520622E0B501A401CE0103960E94D20569
S1130DF06FE575E2CE0102960E9481066EE775E208
S1130E00CE0103960E940106AE014E5F5F4FBE0104
S1130E106F5F7F4FCE0104960E94440183E00E94DD
S1130E20B00682E00E94B0060E94C0068091B02500
S1130E30882381F0CE0102960E947606682FCE01A7
S1130E4004960E947803BC01CE0102960E9481069A
S1130E501092B0258091AD25882359F0CE010396D8
S1130E600E94F605682FCE0103960E94F9051092A0
S1130E70AD258091A2258823C9F2CE0104960E9453
S1130E809E031092A225D2CF5058BB27AA270E94B6
S1130E905C070C94F1070E94E30738F00E94EA070C
S1130EA020F039F49F3F19F426F40C94E0070EF473
S1130EB0E095E7FB0C94DA07E92F0E94020858F347
S1130EC0BA17620773078407950720F079F4A6F52B
S1130ED00C9424080EF4E0950B2EBA2FA02D0B01D0
S1130EE0B90190010C01CA01A0011124FF27591B6B
S1130EF099F0593F50F4503E68F11A16F040A22F71
S1130F00232F342F4427585FF3CF469537952795E1
S1130F10A795F0405395C9F77EF41F16BA0B620BE0
S1130F20730B840BBAF09150A1F0FF0FBB1F661F27
S1130F30771F881FC2F70EC0BA0F621F731F841F6A
S1130F4048F4879577956795B795F7959E3F08F090
S1130F50B0CF9395880F08F09927EE0F9795879552
S1130F6008950E94B60708F481E00895990F0008D7
S1130F70550FAA0BE0E8FEEF16161706E807F90767
S1130F80C0F012161306E407F50798F0621B730B02
S1130F90840B950B39F40A2661F0232B242B252B83
S1130FA021F408950A2609F4A140A6958FEF811D26
S1130FB0811D089597F99F6780E870E060E00895C7
S1130FC09FEF80EC089500240A941616170618065D
S1130FD00906089500240A94121613061406050639
S1130FE00895092E0394000C11F4882352F0BB0FCA
S1130FF040F4BF2B11F460FF04C06F5F7F4F8F4F2D
S11310009F4F089557FD9058440F551F59F05F3F67
S113101071F04795880F97FB991F61F09F3F79F016
S113102087950895121613061406551FF2CF469598
S1131030F1DF08C0161617061806991FF1CF86951A
S11310407105610508940895E894BB2766277727FE
S1131050CB0197F908950E94B60708F48FEF08951D
S11310608F929F92AF92BF92CF92DF92EF92FF92B4
S11310700F931F93CF93DF93EC016B0161157105FF
S113108019F0FB01808391837E01FFEFEF1AFF0AC1
S11310900881802F90E00E948C09892B11F0E701D0
S11310A0F3CF0D3239F47E0182E0E80EF11C0981A0
S11310B011E008C00B3229F47E0192E0E90EF11C24
S11310C0098110E0E701219743E050E064E072E019
S11310D0CE010E949509892BC1F4239645E050E086
S11310E06FEF71E0CE010E949509892B09F42596D2
S11310F0C114D10419F0F601C083D1831111F6C0D3
S113110060E070E080E89FE7FAC043E050E06CEFF5
S113111071E0CE010E949509892B59F4C114D104C0
S113112009F4E9C0F2E0EF0EF11CF601E082F1826D
S1131130E2C020E030E0A901C0E0D0E0F70160EDBA
S1131140A62EA00E89E08A1530F1912F9260B92E57
S1131150812F887012FF04C0811124C0219622C0FF
S113116081112197A5E0B0E00E944C0DDC01CB0178
S1131170880F991FAA1FBB1F9C01AD012A0D311DA9
S1131180411D511D283989E93807480789E1580765
S113119048F0166006C09EEFA9120AC013FD40C0B5
S11311A01860B12E8FEFE81AF80A00811B2DC6CF04
S11311B0802F8F7D8534A1F580818D3211F41061EB
S11311C006C08B3221F0319661E070E004C0818169
S11311D0329662E070E080538A3018F0E61BF70B19
S11311E01FC060E070E060389CE079075CF4DB01CC
S11311F0AA0FBB1FAA0FBB1F6A0F7B1F660F771FA7
S1131200680F711D3196DF0111978C9180538A30DC
S113121050F314FF03C0719561957109C60FD71F70
S113122011FF08C0C114D10429F0CF010197F601C0
S113123080839183CA01B9010E94EB09212F237095
S1131240233019F04B015C0106C04B015C01B7FA75
S1131250B094B7F8B09420E030E0A901C501B4011E
S11312600E94B107882309F43EC0D7FF06C0D19578
S1131270C195D1090BE112E002C003E312E0680159
S1131280F8E1CF1AD10890E2E92EF12CCE15DF0552
S113129074F0F8012591359145915491C501B4013B
S11312A00E94280A4B015C01CE19DF09EFCF0450DC
S11312B01109F594E7940C151D0541F78A2D880F43
S11312C08B2D881F8F3F49F020E030E0A901C50134
S11312D0B4010E94B107811106C082E290E08093BC
S11312E0B1259093B225C501B40109C060E070E056
S11312F080E89FEF04C060E070E080EC9FE7DF913E
S1131300CF911F910F91FF90EF90DF90CF90BF90FE
S1131310AF909F908F90089591110C94990C803206
S113132019F089508550C8F70895FB01DC0141503C
S1131330504088F08D9181341CF08B350CF4805E24
S1131340659161341CF06B350CF4605E861B611191
S113135071F3990B0895881BFCCFDC0101C06D93D8
S113136041505040E0F708950F931F93CF93DF93BC
S1131370CDB7DEB72E97CDBFDEBF0E891F89888D0E
S1131380998D26E02C8309831A8397FF02C080E09D
S113139090E801978D839E83AE01445E5F4F6A8D12
S11313A07B8DCE0101960E94950A4D815E8157FD89
S11313B00AC02F813885421753070CF49A01F801AB
S11313C0E20FF31F10822E96CDBFDEBFDF91CF91C7
S11313D01F910F910895E89409C097FB3EF49095EE
S11313E08095709561957F4F8F4F9F4F9923A9F0FA
S11313F0F92F96E9BB279395F69587957795679589
S1131400B795F111F8CFFAF4BB0F11F460FF1BC0CC
S11314106F5F7F4F8F4F9F4F16C0882311F096E95F
S113142011C0772321F09EE8872F762F05C066230D
S113143071F096E8862F70E060E02AF09A95660FC6
S1131440771F881FDAF7880F9695879597F908957F
S11314500E943B0A0C94F1070E94E30738F00E94B3
S1131460EA0720F0952311F00C94DA070C94E007B6
S113147011240C9425080E94020870F3959FC1F36F
S1131480950F50E0551F629FF001729FBB27F00D2E
S1131490B11D639FAA27F00DB11DAA1F649F662783
S11314A0B00DA11D661F829F2227B00DA11D621FD2
S11314B0739FB00DA11D621F839FA00D611D221F8C
S11314C0749F3327A00D611D231F849F600D211D70
S11314D0822F762F6A2F11249F5750409AF0F1F0F3
S11314E088234AF0EE0FFF1FBB1F661F771F881F5C
S11314F091505040A9F79E3F510580F00C94DA07B3
S11315000C9425085F3FE4F3983ED4F386957795D1
S11315106795B795F795E7959F5FC1F7FE2B880F01
S1131520911D9695879597F908952F923F924F9222
S11315305F926F927F928F929F92AF92BF92CF925F
S1131540DF92EF92FF920F931F93CF93DF93CDB768
S1131550DEB72B97CDBFDEBF6C017B018A01FC0196
S113156016821782838181FFCCC1CE0101963C0192
S1131570F6019381F70193FD859193FF81917F019A
S1131580882309F4BAC1853239F493FD859193FF18
S113159081917F01853229F4B60190E00E94B20C5A
S11315A0E7CF912C212C312CFFE1F315D8F08B32AD
S11315B079F038F4803279F08332A1F4232D20615C
S11315C01DC08D3261F0803369F4232D216016C073
S11315D0832D8260382EE32DE4603E2E2AC0F32D45
S11315E0F8601DC037FC2DC020ED280F2A3040F0D4
S11315F08E32B9F436FC81C1232D2064322E19C0F9
S113160036FE06C08AE0989E200D1124922E11C049
S1131610EAE02E9E200D1124222EF32DF0623F2E9F
S113162008C08C3621F4832D8068382E02C0883699
S113163041F4F70193FD859193FF81917F0181111D
S1131640B3CF982F9F7D9554933028F40C5F1F4F90
S11316509FE399830DC0833631F0833771F083356E
S113166009F059C021C0F801808189830E5F1F4FA2
S113167088248394912C530113C02801F2E04F0E67
S1131680511CF801A080B18036FE03C0692D70E0C2
S113169002C06FEF7FEFC5010E94A70C4C018201CD
S11316A0F32DFF773F2E16C0280122E0420E511C75
S11316B0F801A080B18036FE03C0692D70E002C03D
S11316C06FEF7FEFC5010E949C0C4C01F32DF06875
S11316D03F2E820133FC1BC0822D90E088169906B0
S11316E0B0F4B60180E290E00E94B20C2A94F4CFE8
S11316F0F50137FC859137FE81915F01B60190E0D9
S11317000E94B20C21102A9421E0821A91088114BB
S1131710910471F7E8C0843611F0893641F5F80177
S113172037FE07C060817181828193810C5F1F4FF6
S113173008C060817181072E000C880B990B0E5F25
S11317401F4FF32DFF763F2E97FF09C0909580958C
S1131750709561957F4F8F4F9F4FF0683F2E2AE021
S113176030E0A3010E94EE0C882E861845C0853710
S113177031F4232D2F7EB22E2AE030E025C0932DA4
S1131780997FB92E8F36C1F018F4883579F0B5C039
S1131790803719F0883721F0B0C0E92FE061BE2E00
S11317A0B4FE0DC0FB2DF460BF2E09C034FE0AC088
S11317B0292F2660B22E06C028E030E005C020E1C3
S11317C030E002C020E132E0F801B7FE07C06081DA
S11317D07181828193810C5F1F4F06C0608171818A
S11317E080E090E00E5F1F4FA3010E94EE0C882E54
S11317F08618FB2DFF773F2E36FE0DC0232D2E7F3E
S1131800A22E891458F434FE0BC032FC09C0832D77
S11318108E7EA82E05C0B82CA32C03C0B82C01C002
S1131820B92CA4FE0FC0FE01E80DF11D80818033A8
S113183021F49A2D997EA92E09C0A2FE06C0B39464
S1131840B39404C08A2D867809F0B394A3FC11C024
S1131850A0FE06C0B21488F4280C922C9B180EC06B
S1131860B21460F4B60180E290E00E94B20CB3942A
S1131870F7CFB21418F42B1802C0982C212CA4FE14
S113188010C0B60180E390E00E94B20CA2FE17C023
S1131890A1FC03C088E790E002C088E590E0B601AF
S11318A00CC08A2D867859F0A1FE02C08BE201C0DB
S11318B080E2A7FC8DE2B60190E00E94B20C89148C
S11318C038F4B60180E390E00E94B20C9A94F7CF0A
S11318D08A94F301E80DF11D8081B60190E00E9425
S11318E0B20C8110F5CF222009F442CEB60180E279
S11318F090E00E94B20C2A94F6CFF601868197817B
S113190002C08FEF9FEF2B96CDBFDEBFDF91CF914B
S11319101F910F91FF90EF90DF90CF90BF90AF9009
S11319209F908F907F906F905F904F903F902F90FB
S11319300895992788270895FC0105906150704007
S11319400110D8F7809590958E0F9F1F0895FC0184
S11319506150704001900110D8F7809590958E0FDA
S11319609F1F08950F931F93CF93DF93FB01238150
S113197021FD03C08FEF9FEF2CC022FF16C04681CC
S11319805781248135814217530744F4A081B181E2
S11319909D012F5F3F4F208331838C9326813781B4
S11319A02F5F3F4F2683378314C08B01EC01FB016B
S11319B00084F185E02D1995892BE1F6D80116965E
S11319C08D919C911797019616968D939C931797DA
S11319D0CE01DF91CF911F910F910895FA01AA27AB
S11319E0283051F1203181F1E8946F936E7F6E5F5E
S11319F07F4F8F4F9F4FAF4FB1E03ED0B4E03CD00C
S1131A00670F781F891F9A1FA11D680F791F8A1FEE
S1131A10911DA11D6A0F711D811D911DA11D20D055
S1131A2009F468943F912AE0269F11243019305D0F
S1131A303193DEF6CF010895462F4770405D419300
S1131A40B3E00FD0C9F7F6CF462F4F70405D4A334D
S1131A5018F0495D31FD4052419302D0A9F7EACF15
S1131A60B4E0A6959795879577956795BA95C9F744
S1131A7000976105710508959B01AC010A2E069437
S1131A805795479537952795BA95C9F7620F731FF0
S1131A90841F951FA01D08950E94570DA59F900DAA
S1131AA0B49F900DA49F800D911D11240895A29FB1
S1131AB0B001B39FC001A39F700D811D1124911D1E
S1131AC0B29F700D811D1124911D0895F894FFCFCC
S1131AD031302E322030322E303020640032322E1B
S1131AE0332030342E303020640033382E3420300C
S1131AF0362E303020640035322E382030382E30E7
S1131B003020640037302E362031302E30302064BF
S1131B100038352E342031322E30302066003030FB
S1131B2030353B3130323B30322E37353B302E3579
S1131B30343B302E35343B31332E37353B31372E61
S1131B4030303B332E393300303031303B31303498
S1131B503B30322E39373B302E36353B302E363043
S1131B603B31342E38373B31362E35363B342E302C
S1131B703600303031353B3130323B30322E39345F
S1131B803B302E36373B302E36303B31342E363810
S1131B903B31362E33373B342E3131003030323046
S1131BA03B3130343B30322E38323B302E36363BEC
S1131BB0302E35383B31342E30393B31362E3233EA
S1131BC03B342E303800303032353B3130323B300C
S1131BD0322E39303B302E37323B302E36303B31CB
S1131BE0342E35303B31352E39363B342E313600E8
S1131BF0303033303B3130323B30322E37373B30AC
S1131C002E37303B302E35373B31332E38363B318F
S1131C10352E38363B342E313300303033353B31BA
S1131C2030353B30322E38323B302E37373B302E76
S1131C3036303B31342E30383B31352E34333B345F
S1131C402E323600303034303B3130373B30322E98
S1131C5039343B302E38343B302E36333B31342E3E
S1131C6036383B31352E32323B342E323900303067
S1131C7034353B3130393B30332E32383B302E391A
S1131C80353B302E37333B31362E34323B31352E13
S1131C9031323B342E343300303035303B31313047
S1131CA03B30332E36333B312E30393B302E3833F4
S1131CB03B31382E31373B31342E39333B342E35DA
S1131CC03700303035353B3131313B30332E36310E
S1131CD03B312E30393B302E38333B31382E3037C0
S1131CE03B31342E39313B342E36320030303630ED
S1131CF03B3131313B30332E39303B312E31393B9E
S1131D00302E39313B31392E35303B31342E383297
S1131D103B342E363500303036353B3131313B30B3
S1131D20332E39353B312E32303B302E39323B3174
S1131D30392E37333B31342E38363B342E3635008A
S1131D40303037303B3131353B30342E32303B315B
S1131D502E32343B302E39373B32312E30323B3148
S1131D60352E30343B342E363200303037353B316B
S1131D7030373B30342E31343B312E31393B302E29
S1131D8039363B32302E36393B31352E31373B3400
S1131D902E363500303038303B3131303B30342E44
S1131DA032373B312E32333B302E39393B32312EF0
S1131DB033333B31352E31383B342E363600303018
S1131DC038353B3131343B30342E33363B312E32CF
S1131DD0353B312E30323B32312E37393B31352EC3
S1131DE031393B342E363600303039303B313137DF
S1131DF03B30342E34363B312E32383B312E3034A6
S1131E003B32322E33313B31352E32313B342E3698
S1131E103800303039353B3131373B30342E3431B2
S1131E203B312E32353B312E30343B32322E30337F
S1131E303B31352E32353B342E37320030313030A1
S1131E403B3131353B30342E35313B312E33303B51
S1131E50312E30373B32322E35343B31352E31384A
S1131E603B342E373600303130353B3131363B3060
S1131E70342E35333B312E33313B312E30383B3227
S1131E80322E36373B31352E31373B342E37350041
S1131E90303131303B3131393B30342E36323B3105
S1131EA02E33353B312E31323B32332E31323B31FE
S1131EB0352E30383B342E383300303131353B3118
S1131EC032313B30342E36333B312E33373B312ED7
S1131ED031333B32332E31353B31352E30303B34C8
S1131EE02E383700303132303B3132333B30342EF0
S1131EF037363B312E34313B312E31383B32332EA1
S1131F0037393B31352E30323B342E3934003031C1
S1131F1032353B3132343B30342E39313B312E347F
S1131F20343B312E32323B32342E35333B31352E75
S1131F3030343B342E393700303133303B31323595
S1131F403B30352E30343B312E34373B312E323753
S1131F503B32352E32313B31352E31313B352E304B
S1131F603500303133353B3132363B30352E303766
S1131F703B312E35313B312E32383B32352E333620
S1131F803B31342E39393B352E3036003031343044
S1131F903B3132363B30352E30363B312E35313BFA
S1131FA0312E33303B32352E33303B31342E3935FC
S1131FB03B352E313200303134353B3132383B3011
S1131FC0352E32313B312E35353B312E33343B32D5
S1131FD0362E30343B31342E39363B352E313400F5
S1131FE0303135303B3133303B30352E33323B31B9
S1131FF02E35383B312E33373B32362E36323B3199
S1132000342E39383B352E31330025640D003230FF
S11320103137303631300D003132333435360D003E
S11320203235300D003334300D0007863806404811
S1132030656C6C6F20576F726C64212054686973EF
S11320402069732055534152544530210D00486591
S11320506C6C6F20576F726C642120546869732014
S113206069732055534152544331210D000C00042F
S105207000006A
S9030000FC
